{
  "contractName": "HackerNoon",
  "abi": [
    {
      "constant": true,
      "inputs": [
        {
          "name": "",
          "type": "address"
        },
        {
          "name": "",
          "type": "uint256"
        }
      ],
      "name": "storiesFromAccount",
      "outputs": [
        {
          "name": "",
          "type": "uint256"
        }
      ],
      "payable": false,
      "stateMutability": "view",
      "type": "function"
    },
    {
      "constant": true,
      "inputs": [
        {
          "name": "",
          "type": "address"
        },
        {
          "name": "",
          "type": "uint256"
        }
      ],
      "name": "storiesPublishedByAccount",
      "outputs": [
        {
          "name": "",
          "type": "uint256"
        }
      ],
      "payable": false,
      "stateMutability": "view",
      "type": "function"
    },
    {
      "constant": true,
      "inputs": [
        {
          "name": "",
          "type": "uint256"
        }
      ],
      "name": "stories",
      "outputs": [
        {
          "name": "title",
          "type": "string"
        },
        {
          "name": "text",
          "type": "string"
        },
        {
          "name": "owner",
          "type": "address"
        }
      ],
      "payable": false,
      "stateMutability": "view",
      "type": "function"
    },
    {
      "inputs": [],
      "payable": false,
      "stateMutability": "nonpayable",
      "type": "constructor"
    },
    {
      "anonymous": false,
      "inputs": [
        {
          "indexed": false,
          "name": "storyId",
          "type": "uint256"
        },
        {
          "indexed": false,
          "name": "owner",
          "type": "address"
        },
        {
          "indexed": false,
          "name": "title",
          "type": "string"
        },
        {
          "indexed": false,
          "name": "text",
          "type": "string"
        }
      ],
      "name": "StoryAdded",
      "type": "event"
    },
    {
      "anonymous": false,
      "inputs": [
        {
          "indexed": false,
          "name": "storyId",
          "type": "uint256"
        },
        {
          "indexed": false,
          "name": "owner",
          "type": "address"
        },
        {
          "indexed": false,
          "name": "editor",
          "type": "address"
        },
        {
          "indexed": false,
          "name": "title",
          "type": "string"
        },
        {
          "indexed": false,
          "name": "text",
          "type": "string"
        }
      ],
      "name": "StoryPublished",
      "type": "event"
    },
    {
      "constant": true,
      "inputs": [
        {
          "name": "storyId",
          "type": "uint256"
        }
      ],
      "name": "getStory",
      "outputs": [
        {
          "name": "title",
          "type": "string"
        },
        {
          "name": "text",
          "type": "string"
        }
      ],
      "payable": false,
      "stateMutability": "view",
      "type": "function"
    },
    {
      "constant": false,
      "inputs": [
        {
          "name": "title",
          "type": "string"
        },
        {
          "name": "text",
          "type": "string"
        }
      ],
      "name": "submitStory",
      "outputs": [],
      "payable": false,
      "stateMutability": "nonpayable",
      "type": "function"
    },
    {
      "constant": false,
      "inputs": [
        {
          "name": "storyId",
          "type": "uint256"
        }
      ],
      "name": "publishStory",
      "outputs": [],
      "payable": false,
      "stateMutability": "nonpayable",
      "type": "function"
    }
  ],
  "bytecode": "0x608060405234801561001057600080fd5b50610f4e806100206000396000f300608060405260043610610078576000357c0100000000000000000000000000000000000000000000000000000000900463ffffffff16806303cf950f1461007d578063286a1c871461018f57806334ca96cf146101f05780636ad7b5de1461029f578063749046e4146103005780638a3b6ab81461032d575b600080fd5b34801561008957600080fd5b506100a860048036038101908080359060200190929190505050610472565b604051808060200180602001838103835285818151815260200191508051906020019080838360005b838110156100ec5780820151818401526020810190506100d1565b50505050905090810190601f1680156101195780820380516001836020036101000a031916815260200191505b50838103825284818151815260200191508051906020019080838360005b83811015610152578082015181840152602081019050610137565b50505050905090810190601f16801561017f5780820380516001836020036101000a031916815260200191505b5094505050505060405180910390f35b34801561019b57600080fd5b506101da600480360381019080803573ffffffffffffffffffffffffffffffffffffffff169060200190929190803590602001909291905050506105f6565b6040518082815260200191505060405180910390f35b3480156101fc57600080fd5b5061029d600480360381019080803590602001908201803590602001908080601f0160208091040260200160405190810160405280939291908181526020018383808284378201915050505050509192919290803590602001908201803590602001908080601f0160208091040260200160405190810160405280939291908181526020018383808284378201915050505050509192919290505050610626565b005b3480156102ab57600080fd5b506102ea600480360381019080803573ffffffffffffffffffffffffffffffffffffffff169060200190929190803590602001909291905050506108cd565b6040518082815260200191505060405180910390f35b34801561030c57600080fd5b5061032b600480360381019080803590602001909291905050506108fd565b005b34801561033957600080fd5b5061035860048036038101908080359060200190929190505050610cbc565b6040518080602001806020018473ffffffffffffffffffffffffffffffffffffffff1673ffffffffffffffffffffffffffffffffffffffff168152602001838103835286818151815260200191508051906020019080838360005b838110156103ce5780820151818401526020810190506103b3565b50505050905090810190601f1680156103fb5780820380516001836020036101000a031916815260200191505b50838103825285818151815260200191508051906020019080838360005b83811015610434578082015181840152602081019050610419565b50505050905090810190601f1680156104615780820380516001836020036101000a031916815260200191505b509550505050505060405180910390f35b60608060028381548110151561048457fe5b90600052602060002090600302016000016002848154811015156104a457fe5b9060005260206000209060030201600101818054600181600116156101000203166002900480601f01602080910402602001604051908101604052809291908181526020018280546001816001161561010002031660029004801561054a5780601f1061051f5761010080835404028352916020019161054a565b820191906000526020600020905b81548152906001019060200180831161052d57829003601f168201915b50505050509150808054600181600116156101000203166002900480601f0160208091040260200160405190810160405280929190818152602001828054600181600116156101000203166002900480156105e65780601f106105bb576101008083540402835291602001916105e6565b820191906000526020600020905b8154815290600101906020018083116105c957829003601f168201915b5050505050905091509150915091565b60006020528160005260406000208181548110151561061157fe5b90600052602060002001600091509150505481565b61062e610e45565b60006060604051908101604052808581526020018481526020013373ffffffffffffffffffffffffffffffffffffffff16815250915060016002839080600181540180825580915050906001820390600052602060002090600302016000909192909190915060008201518160000190805190602001906106b0929190610e7d565b5060208201518160010190805190602001906106cd929190610e7d565b5060408201518160020160006101000a81548173ffffffffffffffffffffffffffffffffffffffff021916908373ffffffffffffffffffffffffffffffffffffffff16021790555050500390506000803373ffffffffffffffffffffffffffffffffffffffff1673ffffffffffffffffffffffffffffffffffffffff1681526020019081526020016000208190806001815401808255809150509060018203906000526020600020016000909192909190915055507f81b258296f9f1f59daf8844dc147d36a725b97c030d9c4ce6cd79324a56bfa8b81338686604051808581526020018473ffffffffffffffffffffffffffffffffffffffff1673ffffffffffffffffffffffffffffffffffffffff1681526020018060200180602001838103835285818151815260200191508051906020019080838360005b83811015610823578082015181840152602081019050610808565b50505050905090810190601f1680156108505780820380516001836020036101000a031916815260200191505b50838103825284818151815260200191508051906020019080838360005b8381101561088957808201518184015260208101905061086e565b50505050905090810190601f1680156108b65780820380516001836020036101000a031916815260200191505b50965050505050505060405180910390a150505050565b6001602052816000526040600020818154811015156108e857fe5b90600052602060002001600091509150505481565b610905610e45565b60028281548110151561091457fe5b906000526020600020906003020160606040519081016040529081600082018054600181600116156101000203166002900480601f0160208091040260200160405190810160405280929190818152602001828054600181600116156101000203166002900480156109c75780601f1061099c576101008083540402835291602001916109c7565b820191906000526020600020905b8154815290600101906020018083116109aa57829003601f168201915b50505050508152602001600182018054600181600116156101000203166002900480601f016020809104026020016040519081016040528092919081815260200182805460018160011615610100020316600290048015610a695780601f10610a3e57610100808354040283529160200191610a69565b820191906000526020600020905b815481529060010190602001808311610a4c57829003601f168201915b505050505081526020016002820160009054906101000a900473ffffffffffffffffffffffffffffffffffffffff1673ffffffffffffffffffffffffffffffffffffffff1673ffffffffffffffffffffffffffffffffffffffff16815250509050600160003373ffffffffffffffffffffffffffffffffffffffff1673ffffffffffffffffffffffffffffffffffffffff1681526020019081526020016000208290806001815401808255809150509060018203906000526020600020016000909192909190915055507f0214ee6a4342a414020f116630077868284cc10c3a2ecd5fc1bfd414dc96b7698282604001513384600001518560200151604051808681526020018573ffffffffffffffffffffffffffffffffffffffff1673ffffffffffffffffffffffffffffffffffffffff1681526020018473ffffffffffffffffffffffffffffffffffffffff1673ffffffffffffffffffffffffffffffffffffffff1681526020018060200180602001838103835285818151815260200191508051906020019080838360005b83811015610c13578082015181840152602081019050610bf8565b50505050905090810190601f168015610c405780820380516001836020036101000a031916815260200191505b50838103825284818151815260200191508051906020019080838360005b83811015610c79578082015181840152602081019050610c5e565b50505050905090810190601f168015610ca65780820380516001836020036101000a031916815260200191505b5097505050505050505060405180910390a15050565b600281815481101515610ccb57fe5b9060005260206000209060030201600091509050806000018054600181600116156101000203166002900480601f016020809104026020016040519081016040528092919081815260200182805460018160011615610100020316600290048015610d775780601f10610d4c57610100808354040283529160200191610d77565b820191906000526020600020905b815481529060010190602001808311610d5a57829003601f168201915b505050505090806001018054600181600116156101000203166002900480601f016020809104026020016040519081016040528092919081815260200182805460018160011615610100020316600290048015610e155780601f10610dea57610100808354040283529160200191610e15565b820191906000526020600020905b815481529060010190602001808311610df857829003601f168201915b5050505050908060020160009054906101000a900473ffffffffffffffffffffffffffffffffffffffff16905083565b6060604051908101604052806060815260200160608152602001600073ffffffffffffffffffffffffffffffffffffffff1681525090565b828054600181600116156101000203166002900490600052602060002090601f016020900481019282601f10610ebe57805160ff1916838001178555610eec565b82800160010185558215610eec579182015b82811115610eeb578251825591602001919060010190610ed0565b5b509050610ef99190610efd565b5090565b610f1f91905b80821115610f1b576000816000905550600101610f03565b5090565b905600a165627a7a72305820e47c4edfa54871e13e930418e99a0c05b5486d6387ecca781ea7dfb71a9207780029",
  "source": "pragma solidity ^0.4.24;\n\ncontract HackerNoon {\n\n    struct Story {\n        string title;\n        string text;\n        address owner;\n    }\n\n    mapping (address => uint[]) public storiesFromAccount;\n    mapping (address => uint[]) public storiesPublishedByAccount;\n\n    Story[] public stories;\n\n    event StoryAdded(uint storyId, address owner, string title, string text);\n    event StoryPublished(uint storyId, address owner, address editor, string title, string text);\n\n    constructor () public {\n    }\n\n    function getStory(uint storyId) public view returns(string title, string text) {\n        return (stories[storyId].title, stories[storyId].text);\n    }\n\n    function submitStory(string title, string text) public {\n        Story memory story = Story(title, text, msg.sender);\n        uint storyId = stories.push(story) - 1;\n        storiesFromAccount[msg.sender].push(storyId);\n        emit StoryAdded(storyId, msg.sender, title, text);\n    }\n\n    function publishStory(uint storyId) public {\n        Story memory story = stories[storyId];\n        storiesPublishedByAccount[msg.sender].push(storyId);\n        emit StoryPublished(storyId, story.owner, msg.sender, story.title, story.text);\n    }\n}",
  "sourcePath": "/home/david/Documents/AbramLtd/hackernoonv2/contracts/HackerNoon.sol",
  "compiler": {
    "name": "solc",
    "version": "0.4.24+commit.e67f0147.Emscripten.clang"
  },
  "schemaVersion": "2.0.1",
  "updatedAt": "2018-11-12T21:23:45.203Z"
}